:020000040800F2
:100000002037002091650008C9030008C39100084B
:10001000CB030008CD030008CF0300080000000058
:10002000000000000000000000000000D1030008F4
:10003000D3030008000000004B910008670300088C
:10004000AB650008AB650008AB650008AB65000850
:10005000AB650008AB650008AB650008AB65000840
:10006000AB650008AB650008AB650008AB65000830
:10007000AB650008AB650008AB650008AB65000820
:10008000AB650008AB650008AB650008AB65000810
:1000900095D40008AB650008AB650008AB650008A7
:1000A000AB650008AB650008AB650008AB650008F0
:1000B000AB650008AB650008B7D00008AB65000869
:1000C000AB650008AB650008AB650008AB650008D0
:1000D000AB6500088B050008AB650008AB65000840
:1000E000AB650008AB650008AB65000800F002F8DE
:1000F00000F05EF80AA090E8000C82448344AAF164
:100100000107DA4501D100F053F8AFF2090EBAE861
:100110000F0013F0010F18BFFB1A43F0010318473B
:1001200024E8000044E800000A444FF0000C10F8F6
:10013000013B13F0070408BF10F8014B1D1108BF65
:1001400010F8015B641E05D010F8016B641E01F805
:10015000016BF9D113F0080F1EBF10F8014BAD1C55
:100160000C1B09D16D1E58BF01F801CBFAD505E073
:1001700014F8016B01F8016B6D1EF9D59142D6D3CD
:10018000704700000023002400250026103A28BFF5
:1001900078C1FBD8520728BF30C148BF0B607047F9
:1001A0001FB59DE803000DF0DBFE1FBD10B510BDAF
:1001B0000DF064FF1146FFF7F3FF00F09CF80DF01F
:1001C00082FF03B4FFF7F2FF03BC0DF0AFFF0000A6
:1001D00000F000F9002000F011F9322008F0C0FB17
:1001E000002000F013F9322008F0BAFBF2E709F022
:1001F000DFBC7FB54FF400761C48CDE9000605252D
:10020000142400231A4A1BA100F50070CDE9024511
:1002100008F0A9F910B9184808F00DFA3346002281
:10022000164917A0CDE9004508F066FA08B108F0B4
:1002300002FA1520CDE9000533460022144915A025
:1002400008F05AFA08B108F0F6F908200302002273
:10025000AFF26501CDE9000412A008F04DFA08B133
:1002600008F0E9F904B0002070BD0000D0080020BB
:10027000D10100086C656400D00A00209DD30008FD
:1002800063616E5F726563765F7468726561640056
:10029000FDD3000863616E5F73656E645F7468729E
:1002A00065616400696E69740000000004460D46D3
:1002B00014A007F045F921461CA007F041F9294692
:1002C0001FA007F03DF9FEE710B500F055F807F064
:1002D00057F92049204807F08CFA07F05AFF08F038
:1002E0005FFD08F067FDFFF784FF06F0EDFBBDE85A
:1002F000104007F064BF10B508F010FFFFF7E4FFEF
:10030000002010BD0A0D2057726F6E672070617259
:10031000616D657465722076616C756520646574C5
:100320006563746564206F6E0D0A00002020202034
:1003300020202066696C65202025730D0A000000CE
:10034000202020202020206C696E65202025640D4F
:100350000A000000005000202037002000214FF04C
:10036000006006F0A6B810B506F004FE06F03EF9EF
:10037000BDE8104006F009BE10B5FFF7EFFF0E48CC
:1003800064210068B0FBF1F0401EB0F1807F09D21B
:100390004FF0E0214861094AF02010700020886188
:1003A0000720086100F012F905A007F014F9BDE874
:1003B000104009F0F3BB00000800002023ED00E02E
:1003C00075617274310000007047FEE7FEE7FEE7DA
:1003D0007047704708B50121102000F099FC1020EB
:1003E0008DF8030003208DF802004FF40050ADF8A3
:1003F00000006946094803F0FFFE08BD002804D14B
:100400004FF40051054804F06DB87047002804D13E
:100410004FF40051014804F0B9B870470010014092
:1004200070B586B00C4605004FF000060BD18DF874
:10043000106032238A4A8BA18FA007F081F89DF8C3
:1004400010100029FBD05CB98DF810603323844A6A
:1004500091A189A007F074F89DF810000028FBD046
:10046000ED6B20680090207900F00F00082801D182
:10047000ADF80460606810F0300F04D0C0F30110D4
:10048000012803D006E0ADF8066003E04FF4005009
:10049000ADF80600ADF808600C20ADF80C60ADF8C2
:1004A0000A006946286804F024FB0121286804F04A
:1004B00036FC012240F22551286804F058FC06B0B1
:1004C000002070BD38B50C4605000CD18DF8000039
:1004D000634A5223103263A167A007F031F89DF8F8
:1004E0000020002AFBD00121E86B4FF0E022102C05
:1004F0000CD0112C14D190F9040000F01F03994086
:10050000400902EB8000C0F8801109E090F9040076
:1005100000F01F039940400902EB8000C0F8001171
:10052000002038BD38B50C4605000CD18DF8000010
:100530004B4A68231E324BA14FA007F001F89DF8EB
:1005400000100029FBD0E86B006802881106FCD57A
:100550008480012038BD38B504000CD18DF800002E
:100560003F4A762329323FA143A006F0E9FF9DF8D8
:1005700000100029FBD0E16B4FF0FF3009680A88BA
:10058000920601D58888C0B238BD70B5464C06F0D9
:10059000F1FC40F225552946206804F0B4FF30B143
:1005A000424808F0E8FF2946206805F01DF840F2AF
:1005B00026652946206804F0A6FF18B12946206860
:1005C00005F012F8BDE8704006F0DFBC38B52448ED
:1005D00001211C384468042000F09AFB01218803A3
:1005E00000F096FB02208DF8020004208DF8030035
:1005F00000022F4DADF800006946284603F0FCFDCF
:1006000018218DF803106915ADF8001069462846C9
:1006100003F0F2FD124A2548143A234D0264A0F17A
:100620004402C2643C304FF4E1318160C46028462A
:1006300000798DF8000000208DF801008DF802008F
:1006400001208DF80300684605F0EEFE01B02B4650
:10065000BDE8304040F2431216A1144808F05DBFD7
:1006600094E1000873657269616C20213D20525449
:100670005F4E554C4C000000282573292061737390
:10068000657274206661696C6564206174202573ED
:100690003A2564200A00000063666720213D20524D
:1006A000545F4E554C4C0000000000208C0B002085
:1006B0000008014075617274310000000CB5002221
:1006C0004C4800920192016841F4803101604FF47E
:1006D000A063016801F4003101910099491C009167
:1006E000019911B900999942F3D10168890333D571
:1006F0000121019140490A6842F010020A600A682B
:1007000022F003020A600A6842F002020A604168AD
:10071000416041684160416841F4806141604168E5
:1007200021F47C114160416841F4E81141600168A5
:1007300041F08071016001688901FCD5416821F0B8
:1007400003014160416841F0020141604168C1F329
:1007500081010229FAD10CBD01920CBD254810B5CA
:10076000016841F0010101604168244A1140416083
:100770000168234A11400160016821F48021016071
:10078000416821F4FE0141604FF41F018160FFF7D1
:1007900095FF1C494FF00060086010BD154A10B568
:1007A0005068194B10F00C01184803D0042901D0EF
:1007B000082901D0036012E05168536801F47011F8
:1007C0004FF0020413F4803F04EB914102D05368D0
:1007D0009B0301D50E4B00E00B4B59430160516860
:1007E0000A4AC1F30311121D515C0268CA4002603B
:1007F00010BD000000100240002002400000FFF881
:10080000FFFFF6FE08ED00E000127A00080000206D
:1008100000093D00F948016841F0010101604168AB
:10082000F74A114041600168F64A114001600168D1
:1008300021F480210160416821F4FE0141604FF400
:100840001F018160704770B504004FF480354FF48C
:10085000802608D0AC4206D0B44204D040F2111138
:10086000E9A0FFF723FDE548016821F4803101602C
:10087000016821F480210160AC4206D0B44203D16A
:10088000016841F4A021016070BD016841F480312C
:10089000F9E770B500250446212818D0312C16D070
:1008A000392C14D0412C12D0612C10D07A2C0ED0BF
:1008B0007B2C0CD07C2C0AD07D2C08D07E2C06D032
:1008C0007F2C04D040F23451CFA0FFF7EFFC600939
:1008D000CA4901280BD002280BD0486A04F01F0136
:1008E00001228A40024200D00125284670BD0868D6
:1008F000F4E7086AF2E738B500204FF4A0640090EE
:100900003120FFF7C6FF0099491C0091A14201D098
:100910000028F5D03120FFF7BCFF002800D00120CF
:1009200038BD10B504461F2804D94FF4A971B6A0EC
:10093000FFF7BCFCB149086820F0F80040EAC400A9
:10094000086010BD10B5040006D0012C04D040F2A0
:100950006511ADA0FFF7AAFCBA48046010BD70B5E0
:100960000C4605000AD0B5F5803F07D0B5F5403FED
:1009700004D040F27F11A4A0FFF798FC74B3B4F543
:10098000802F2BD0B4F5002F28D0B4F5402F25D0E0
:10099000B4F5801F22D0B4F5A01F1FD0B4F5C01F3E
:1009A0001CD0B4F5E01F19D0B4F5001F16D0B4F573
:1009B000101F13D0B4F5201F10D0B4F5301F0DD088
:1009C000B4F5401F0AD0B4F5501F07D0B4F5601F2E
:1009D00004D04FF4C0718CA0FFF768FC87494868C9
:1009E000254320F47C1005434D6070BD10B5040014
:1009F00006D0012C04D04FF4CA7183A0FFF756FC37
:100A00009048046610BD10B5040008D0012C06D033
:100A1000022C04D04FF40E717BA0FFF747FC7749FE
:100A2000486820F003002043486010BD73484068C8
:100A300000F00C00704710B5040014D0802C12D0C8
:100A4000902C10D0A02C0ED0B02C0CD0C02C0AD0E2
:100A5000D02C08D0E02C06D0F02C04D04FF4197123
:100A600069A0FFF723FC6549486820F0F0002043A7
:100A7000486010BD10B5040010D0B4F5806F0DD0E3
:100A8000B4F5A06F0AD0B4F5C06F07D0B4F5E06F2D
:100A900004D040F27E215CA0FFF708FC574948686B
:100AA00020F4E0602043486010BD10B5040010D071
:100AB000B4F5806F0DD0B4F5A06F0AD0B4F5C06F57
:100AC00007D0B4F5E06F04D04FF426714EA0FFF7C5
:100AD000EDFB4A49486820F4605040EAC400486091
:100AE00010BD70B504460D46400900D124B940F24E
:100AF000BF2145A0FFF7DAFB404E4DB1012D04D0D8
:100B00004FF4307140A0FFF7D1FB707A204301E031
:100B1000707AA043707270BD10B5040006D0012C2D
:100B200004D040F2DB2138A0FFF7C0FB4548D830A5
:100B3000046010BD10B504000DD0B4F5804F0AD08C
:100B4000B4F5004F07D0B4F5404F04D040F2023165
:100B50002DA0FFF7ABFB2949486820F44040204313
:100B6000486010BD10B5040008D0012C06D0042C3C
:100B700004D04FF4507124A0FFF798FB1F480021C8
:100B800080F8201080F82010012C05D0042C02D110
:100B9000052180F8201010BD0121FAE710B50400EE
:100BA00006D0012C04D040F2613117A0FFF77EFB84
:100BB0002548046010BD10B50446B0F5807F0AD00A
:100BC000B4F5007F07D0B4F5407F04D040F2723115
:100BD0000DA0FFF76BFB0948016A2143016210BDBC
:100BE00010B5040006D0012C04D04FF4607106A0AB
:100BF000FFF75CFB14484438046010BD001002404D
:100C00000000FFF8FFFFF6FE4C69627261726965D1
:100C1000735C53544D3332463130785F53746450B3
:100C200065726970685F4472697665725C7372633D
:100C30005C73746D3332663130785F7263632E6338
:100C400000000000000042428004424230B59D4A4C
:100C500051689D4B11F00C0103D0042901D00829E3
:100C600001D0036012E05168536801F470114FF035
:100C7000020413F4803F04EB914102D053689B03BC
:100C800001D5924B00E0904B5943016051680F230E
:100C900003EA11118E4B5C5C0168E14041605468CD
:100CA000072505EA14241C5D21FA04F484605468C5
:100CB00005EAD4241B5DD940C1605268032303EACE
:100CC0009232834B1B1F9A5CB1FBF2F1016130BD84
:100CD00070B5044640F257500D4634EA000000D18A
:100CE0002CB940F22B41AFF2E000FFF7DFFA754E6E
:100CF00055B1012D05D040F22C41AFF2F400FFF7C1
:100D0000D5FA7069204301E07069A043706170BD3D
:100D100070B504466F480D46044200D12CB940F22C
:100D20004A41AFF21C10FFF7C1FA664E55B1012DD2
:100D300005D040F24B41AFF23010FFF7B7FAB0697F
:100D4000204301E0B069A043B06170BD70B50446B6
:100D500061480D46044200D12CB940F26941AFF21E
:100D60005810FFF7A3FA574E55B1012D05D040F2A8
:100D70006A41AFF26C10FFF799FAF069204301E085
:100D8000F069A043F06170BD70B5044651480D464E
:100D9000044200D12CB940F2A441AFF29410FFF705
:100DA00085FA484E55B1012D05D040F2A541AFF26C
:100DB000A810FFF77BFAF068204301E0F068A04339
:100DC000F06070BD70B5044643480D46044200D142
:100DD0002CB940F2C341AFF2D010FFF767FA394E99
:100DE00055B1012D05D040F2C441AFF2E410FFF738
:100DF0005DFA3069204301E03069A043306170BD85
:100E000010B5040007D0012C05D04FF49B61AFF260
:100E10000820FFF74BFA31480460EEE610B50400F5
:100E200007D0012C05D040F2E541AFF22420FFF7B6
:100E30003DFA2B48C464E0E610B504000DD0052C43
:100E40000BD0042C09D0062C07D0072C05D040F27B
:100E50000551AFF24C20FFF729FA1A48C471CCE6CD
:100E60001848416A41F080714162704770B50025B1
:100E7000044601280FD0022C0DD0042C0BD0082CD6
:100E800009D0102C07D0802C05D040F27E51AFF253
:100E90008820FFF70BFA0B488068204200D001251C
:100EA000284670BD10B5044610F0600F00D12CB973
:100EB00040F2AB51AFF2B020FFF7F8F9014884726D
:100EC0009BE600000010024000127A0000093D007D
:100ED000200000200200C0FF003601814004424291
:100EE000000042422DE9F05FFD4DFE4EFE4FDFF85F
:100EF000FC83DFF8FC93DFF8FCA3DFF8FCB30446C7
:100F0000A8422DD0B4F1804F3BD0B44228D0BC428F
:100F100026D0444524D04C4522D0544520D05C45B1
:100F20001ED0F64884421BD0F548844218D0F548BC
:100F3000844215D0F448844212D0F44884420FD041
:100F4000F34884420CD0F348844209D0F2488442EA
:100F500006D0F248844203D07D21F1A0FFF7A6F924
:100F6000AC4202D10121CC0280E0B4F1804F08D024
:100F7000B4420DD101210220FFF724FF00210220FD
:100F80005FE001210846FFF71DFF0021012058E026
:100F9000BC4206D101210420FFF714FF00210420E8
:100FA0004FE0444506D101210820FFF70BFF002147
:100FB000082046E04C4506D101211020FFF702FF32
:100FC000002110203DE0544506D101212020FFF7EB
:100FD000F9FE0021202034E05C4502D101214C03C0
:100FE00044E0C648844202D10121CC043EE0C4481A
:100FF000844202D101210C0538E0C248844202D16A
:1010000001214C0532E0C048844206D10121402034
:10101000FFF7D8FE0021402013E0BC48844206D1EF
:1010200001218020FFF7CEFE0021802009E0B84892
:1010300084420AD1841501212046FFF7C3FE002116
:101040002046BDE8F05FFFF7BDBEB248844202D142
:1010500001210C040AE0B048844202D101214C0471
:1010600004E0AE4884420AD101218C042046FFF7F7
:101070008BFE2046BDE8F05F0021FFF785BEBDE88E
:10108000F09F2DE9F05F964FDFF85882DFF8589215
:10109000DFF858A2DFF858B2974E0D460446B84222
:1010A0002ED0B4F1804F2BD0444529D04C4527D0C9
:1010B000544525D05C4523D08E48844220D0B4428C
:1010C0001ED08E4884421BD08D48844218D08D4853
:1010D000844215D08C48844212D08C4884420FD070
:1010E0008B4884420CD08B48844209D08A48844281
:1010F00006D08A48844203D0E72189A0FFF7D6F8BA
:10110000688858B1102809D0202807D0402805D079
:10111000602803D0E82182A0FFF7C8F8E88848B12A
:10112000B0F5807F06D0B0F5007F03D0E9217CA028
:10113000FFF7BCF82088BC420AD0B44208D0B4F112
:10114000804F05D0444503D04C4501D0544503D1D0
:1011500020F07001688808435C4506D065498C42E0
:1011600003D020F44071E88808432080A888A08537
:1011700028882085BC420AD0B44208D06548844201
:1011800005D06548844202D06448844201D1287A5F
:1011900020860120A08272E72DE9F05FDFF8409100
:1011A000DFF854A1DFF86CB10D46044648452CD059
:1011B000B4F1804F29D04B48844226D04A4884421B
:1011C00023D04A48844220D054451ED04B48844204
:1011D0001BD04B48844218D04A48844215D04A4814
:1011E000844212D0494884420FD0494884420CD0EE
:1011F0005C450AD04848844207D04848844204D01D
:101200004FF48E7146A0FFF751F8288870B110286E
:101210000CD020280AD0302808D0602806D07028AA
:1012200004D040F21D113EA0FFF740F8688830B1AD
:10123000012804D04FF48F7139A0FFF737F82889BF
:1012400030B1022804D040F21F1135A0FFF72EF86C
:10125000208C20F001002084218CA788208B2A88F4
:1012600020F0730042EA0008288921F002016E880C
:10127000084306434C4509D0544507D05C4505D08A
:101280002548844202D02548844273D1A88830B1D1
:10129000042804D04FF49E7121A0FFF707F8688955
:1012A00030B1082804D040F23D111DA0FEF7FEFF2A
:1012B000E889B0F5007F05D020B14FF49F7118A0E8
:1012C000FEF7F4FFA889B0F5807F05D020B140F289
:1012D0003F1113A0FEF7EAFF26F0080168893EE0FF
:1012E000002C01400004004000080040000C0040B9
:1012F000001000400014004000340140004C014048
:10130000005001400054014000180040001C004003
:1013100000200040004001400044014000480140DE
:101320004C69627261726965735C53544D33324625
:101330003130785F5374645065726970685F4472CD
:10134000697665725C7372635C73746D3332663197
:1013500030785F74696D2E63000000000AE0084376
:10136000AE8820F00400064327F44071A889EF8975
:1013700008430743A780A4F81880E888A08626843D
:101380007DE62DE9F05FDFF808A4DFF808B40D462C
:10139000044650451CD0B4F1804F19D0FE48844219
:1013A00016D0FE48844213D0FD48844210D05C45DC
:1013B0000ED0FC4884420BD0FB48844208D0FB4846
:1013C000844205D040F26F11AFF2AC00FEF76EFF21
:1013D000288878B110280DD020280BD0302809D0CB
:1013E000602807D0702805D04FF4B871AFF2D00054
:1013F000FEF75CFF688838B1012805D040F2711112
:10140000AFF2E400FEF752FF288938B1022805D078
:101410004FF4B971AFF2F800FEF748FF208C20F0CE
:1014200010002084228CA788208B2B884FF6FF7910
:1014300020F4E64109EA032343EA0108298922F05E
:10144000200209EA011111436A8809EA02160E43D3
:10145000544501D05C453FD1A88838B1042805D057
:1014600040F28F11AFF24810FEF720FF688938B1C3
:10147000082805D04FF4C871AFF25C10FEF716FFD4
:10148000E889B0F5007F06D028B140F29111AFF2A3
:101490007010FEF70BFFA889B0F5807F06D028B149
:1014A0004FF4C971AFF28810FEF700FF698926F08A
:1014B000800209EA01111143AA8821F0400109EADA
:1014C00002160E43A98927F4406209EA81011143FB
:1014D000EA8909EA82070F43A780A4F81880E88800
:1014E00020872684CBE52DE9F05FDFF8A4A2DFF8A2
:1014F000A4B20D460446504513D0B4F1804F10D02D
:10150000A54884420DD0A54884420AD0A44884420C
:1015100007D05C4505D040F2C111AFF2FC10FEF7D8
:10152000C5FE288878B110280DD020280BD030288F
:1015300009D0602807D0702805D04FF4E171AFF2D0
:101540002020FEF7B3FE688838B1012805D040F2AC
:10155000C311AFF23420FEF7A9FE288938B1022862
:1015600005D04FF4E271AFF24820FEF79FFE208CC9
:1015700020F480702084208CA788A18B2A8821F0F9
:10158000730142EA010820F4007128894FF6FF79BF
:1015900009EA00200843698809EA01260643544500
:1015A00001D05C453FD1A88838B1042805D04FF45C
:1015B000F071AFF29420FEF779FE688938B10828FF
:1015C00005D040F2E111AFF2A820FEF76FFEE889E6
:1015D000B0F5007F06D028B14FF4F171AFF2C02012
:1015E000FEF764FEA889B0F5807F06D028B140F2EE
:1015F000E311AFF2D420FEF759FE698926F40062A8
:1016000009EA01211143AA8821F4806109EA02262E
:101610000E43A98927F4405209EA01111143EA89CE
:1016200009EA02170F43A780A4F81C80E888A08766
:10163000268424E52DE9F05FDFF854A1DFF854B1EA
:101640000D460446504513D0B4F1804F10D0524897
:1016500084420DD0514884420AD05148844207D078
:101660005C4505D04FF40471AFF24C30FEF71EFE1E
:10167000288878B110280DD020280BD0302809D028
:10168000602807D0702805D040F21121AFF27030E9
:10169000FEF70CFE688838B1012805D040F212210F
:1016A000AFF28430FEF702FE288938B1022805D057
:1016B00040F21321AFF29830FEF7F8FD208C20F4B1
:1016C00080502084218CA688A08B2B884FF6FF7930
:1016D00020F4E64209EA0327174321F4005229893E
:1016E00009EA013111436A88544509EA023040EAA7
:1016F000010801D05C4510D1A889B0F5807F06D0E3
:1017000028B14FF40C71AFF2E830FEF7CFFDAA8993
:1017100026F4804009EA82160643A680A783E8885B
:10172000A4F84000A4F82080A9E470B50446184845
:101730000D46844214D0B4F1804F11D01648844233
:101740000ED0164884420BD01548844208D0114868
:10175000844205D040F67611AFF23C40FEF7A6FD7C
:101760005DB1042D09D0082D07D00C2D05D040F611
:101770007711AFF25440FEF799FDA08B20F4406042
:10178000A083A08B4FF6FF7101EA052108430FE00B
:10179000002C0140003401400004004000080040DB
:1017A000000C0040004C0140001800400040014087
:1017B000A08370BD70B50446FA480D46844214D02B
:1017C000B4F1804F11D0F84884420ED0F7488442DB
:1017D0000BD0F748844208D0F648844205D04FF435
:1017E0001661AFF2C440FEF761FD5DB1042D09D072
:1017F000082D07D00C2D05D040F66111AFF2E04066
:10180000FEF754FDA08B20F00C00A083A08B284392
:10181000A08370BD70B50446E2480D4684421DD0D9
:10182000B4F1804F1AD0E048844217D0DF48844298
:1018300014D0DF48844211D0DE4884420ED0DE4806
:1018400084420BD0DD48844208D0DD48844205D074
:1018500040F64A11AFF23850FEF728FD5DB1042D75
:1018600009D0082D07D00C2D05D040F64B11AFF252
:101870005050FEF71BFD208B20F440602083208B0E
:101880004FF6FF7101EA05210843208370BDF0B5D2
:10189000048C24F010040484078B048C4FF6FF752D
:1018A00027F4734705EA03333B4305EA02221A4350
:1018B000BC4B05EA011698420ED0BE4B98420BD0A5
:1018C000B0F1804F08D0B84B984205D0B74B984242
:1018D00002D0B74B984205D124F02001314341F0AA
:1018E000100104E024F0A0030B4343F01001028335
:1018F0000184F0BD70B50446AA480D4684422FD03D
:10190000B4F1804F2CD0A848844229D0A748844203
:1019100026D0A748844223D0A648844220D0A64897
:1019200084421DD0A74884421AD0A748844217D0C9
:10193000A248844214D0A548844211D0A4488442CD
:101940000ED09F4884420BD0A248844208D0A248BF
:10195000844205D040F63411AFF23C60FEF7A6FC9D
:101960005DB1042D09D0082D07D00C2D05D040F60F
:101970003511AFF25460FEF799FC208B20F00C007B
:101980002083208B2843208370BD70B5048C24F005
:1019900001040484058B048C4FF6FF7606EA0313DA
:1019A000134325F0F3057F4A2B4390420ED0814A22
:1019B00090420BD0B0F1804F08D07B4A904205D0C6
:1019C0007A4A904202D07A4A904202D124F002022E
:1019D00001E024F00A020A4342F00101038301847A
:1019E00070BD2DE9F84F044608880D4658B104280B
:1019F00009D0082807D00C2805D040F24E21AFF2BC
:101A0000E060FEF753FCA888012809D0022807D01F
:101A1000032805D040F24F21AFF2FC60FEF746FCF0
:101A2000E88858B1042809D0082807D00C2805D028
:101A30004FF41471AFF21870FEF738FC28890F28A4
:101A400005D940F25121AFF22870FEF72FFCDFF8E4
:101A50005481554E554FDFF85891DFF858A14FF09B
:101A6000804B444509D0544507D05C4505D0B4426D
:101A700003D0BC4201D04C4506D1688880B1022811
:101A80000ED040F2562107E0688848B1022807D0FE
:101A90000A2805D040F25A21AFF27C70FEF706FC0E
:101AA00028884549454A464BF0B3042877D0082892
:101AB0003C4875D084420FD05C450DD0B4420BD069
:101AC000BC4209D04C4507D0544505D04FF41F7196
:101AD000AFF2B470FEF7EAFB6888AA88B5F8088010
:101AE000218C21F480512184A38B218C4FF6FF7E21
:101AF00023F473430EEA02221A430EEA0833134317
:101B0000284A0EEA003CCDF800C0944209D0544562
:101B100007D05C4505D0B44203D0BC4201D04C454F
:101B20007DD121F4005000E004E00099084340F426
:101B30008050C4E0444527D05C4525D0B44223D032
:101B4000BC4221D04C451FD054451DD08C421BD0E7
:101B50001C48844218D01C48844215D0944213D0AB
:101B60001A48844210D01A4884420DD09C420BD0AF
:101B70001848844208D01848844205D040F25E21BB
:101B8000AFF66400FEF792FB2B89AA88698820468D
:101B9000FFF7FBFEE9882046BDE8F84FAAE61DE006
:101BA00041E00000002C014000040040000800401B
:101BB000000C004000340140004C0140001800407F
:101BC000004001400050014000540140001C004012
:101BD000002000400044014000480140444515D029
:101BE0005C4513D0B44211D0BC420FD04C450DD04F
:101BF00054450BD08C4209D0944207D09C4205D06A
:101C00004FF41A71AFF6E800FEF750FB2B89AA8853
:101C100069882046FFF73BFEE988204600E049E05E
:101C2000BDE8F84FF6E584420FD05C450DD0B442D4
:101C30000BD0BC4209D04C4507D0544505D040F2EA
:101C40007221AFF62410FEF731FB6888B5F80480E6
:101C50002A89218C21F480712184A38B218C4FF659
:101C6000FF7C0CEA021223F0F30342EA08021A4353
:101C7000FF4B0CEA002E9C4209D0544507D05C452E
:101C800005D0B44203D0BC4201D04C4506D121F46A
:101C9000007040EA0E0040F4807004E021F42061FE
:101CA000014341F48070A2832084E9882046BDE886
:101CB000F84F7FE521F40241014341F48050A383B2
:101CC0002084E9882046BDE8F84F2EE52DE9F04153
:101CD0000546E748002701260C4685421DD0B5F190
:101CE000804F1AD0E348854217D0E348854214D08C
:101CF000E248854211D0E24885420ED0E148854253
:101D00000BD0E148854208D0E048854205D040F23A
:101D10009321AFF6F410FEF7C9FA618801B90227E2
:101D2000A288012A00D1022620882389002828467B
:101D300010D0FFF7ACFDE1882846FFF76BFD238943
:101D4000324639462846FFF720FEE1882846BDE89E
:101D5000F041CFE5FFF719FEE1882846FFF7CAFDFD
:101D60002389324639462846FFF791FDE188284607
:101D7000BDE8F0414EE570B50546BD480C468542CC
:101D800011D0BF4885420ED0C04885420BD0C04814
:101D9000854208D0BF48854205D040F2CB21AFF63E
:101DA0008020FEF783FA2088B0F5006F06D028B1B6
:101DB0004FF43371AFF69820FEF778FA6088B0F5EB
:101DC000806F06D028B140F2CD21AFF6AC20FEF7EF
:101DD0006DFAA08870B1B0F5807F0BD0B0F5007FB0
:101DE00008D0B0F5407F05D040F2CE21AFF6D0202C
:101DF000FEF75CFA2089B0F5805F06D028B140F28A
:101E0000CF21AFF6E420FEF751FA608940B1B0F57A
:101E1000005F05D04FF43471AFF6FC20FEF746FAB0
:101E2000A089B0F5804F06D028B140F2D121AFF69D
:101E30001030FEF73BFA20886188E2880843A188C9
:101E4000114308432189084361890843A189084354
:101E5000A5F8440070BD4FF6FF718180002101801C
:101E6000C1804180017270470021018041808180E2
:101E7000C180018141818181C18170470021018040
:101E8000418001228280C180018170470021018050
:101E900041808180C180018141818181704770B51D
:101EA000044673480D46844235D0B4F1804F32D099
:101EB000704884422FD0704884422CD06F488442AE
:101EC00029D07548844226D07448844223D06C4877
:101ED000844220D06B4884421DD0714884421AD07D
:101EE0007048844217D06848844214D06E488442B7
:101EF00011D06E4884420ED0644884420BD06448AE
:101F0000844208D06348844205D040F22931AFF6BC
:101F1000F030FEF7CBF95DB1012D05D040F22A314A
:101F2000AFF60440FEF7C2F9208840F0010002E05D
:101F3000208820F00100208070BD70B504464C4818
:101F40000D46844211D04E4884420ED04F48844200
:101F50000BD04F48844208D04E48844205D040F20E
:101F60004231AFF64440FEF7A1F965B1012D05D02D
:101F700040F24331AFF65840FEF798F934F8440F79
:101F800040F4004003E034F8440FC0F30E0020801A
:101F900070BD70B50446364816460D46844235D0AD
:101FA000B4F1804F32D0334884422FD0324884423B
:101FB0002CD03248844229D03748844226D0374832
:101FC000844223D02E48844220D02E4884421DD003
:101FD000334884421AD03348844217D02A48844276
:101FE00014D03148844211D0304884420ED0274862
:101FF00084420BD02648844208D02648844205D02B
:1020000040F26B31AFF6E840FEF750F9280A00D1F4
:102010002DB94FF45B71AFF6F840FEF747F956B1B2
:10202000012E05D040F26D31AFF60C50FEF73EF9AF
:10203000A089284301E0A089A843A08170BD70B5A4
:1020400004460B480D46844256D0B4F1804F53D01D
:102050000848844250D0084884424DD00748844202
:102060004AD00D48844247D00C48844244D01FE0F7
:10207000002C01400004004000080040000C00401B
:1020800000340140004C0140001800400040014075
:10209000004401400048014000100040001400408E
:1020A0000050014000540140001C0040002000404E
:1020B000F848844220D0F84884421DD0F748844232
:1020C0001AD0F748844217D0F648844214D0F64814
:1020D000844211D0F54884420ED0F54884420BD09A
:1020E000F448844208D0F448844205D04FF4647127
:1020F000AFF6D450FEF7DAF8280A00D12DB940F235
:102100009131AFF6E450FEF7D1F8A58270BD70B5FD
:102110000646EA4815460C4686421DD0B6F1804F69
:102120001AD0E748864217D0E648864214D0E648DF
:10213000864211D0D74886420ED0DD4886420BD069
:10214000DC48864208D0DC48864205D04FF46B71EB
:10215000AFF63460FEF7AAF84CB3012C27D0022C5E
:1021600025D0032C23D0042C21D0052C1FD0062CE5
:102170001DD0072C1BD0082C19D0092C17D00A2CE5
:1021800015D00B2C13D00C2C11D00D2C0FD00E2CE5
:102190000DD00F2C0BD0102C09D0112C07D0122CE5
:1021A00005D040F2AD31AFF68860FEF77FF8C5B3D9
:1021B000B5F5807F35D0B5F5007F32D0B5F5407FDD
:1021C0002FD0B5F5806F2CD0B5F5A06F29D0B5F51F
:1021D000C06F26D0B5F5E06F23D0B5F5006F20D0E5
:1021E000B5F5106F1DD0B5F5206F1AD0B5F5306F6D
:1021F00017D0B5F5406F14D0B5F5506F11D0B5F5C7
:10220000606F0ED0B5F5706F0BD0B5F5805F08D05C
:10221000B5F5885F05D040F2AE31AFF6FC60FEF751
:1022200045F82C43A6F8484070BD70B50446A34855
:1022300016460D46844223D0B4F1804F20D0A048EA
:1022400084421DD09F4884421AD09F48844217D0B0
:102250009E48844214D09E48844211D08D488442C6
:102260000ED0934884420BD09248844208D09248C2
:10227000844205D040F2C731AFF65C70FEF716F825
:1022800035F4FE4000D12DB94FF47271AFF6707085
:10229000FEF70CF856B1012E05D040F2C931AFF669
:1022A0008070FEF703F8A089284301E0A089A843C5
:1022B000A08170BD10B50446804884421DD0B4F1A1
:1022C000804F1AD07E48844217D07E48844214D072
:1022D0007D48844211D06F4884420ED06E488442BB
:1022E0000BD07048844208D07148844205D04FF426
:1022F0007871AFF6D470FDF7D9FF208920F0070080
:10230000208110BD70B504466C480D4684421CD037
:10231000B4F1804F19D06A48844216D0694884428B
:1023200013D06948844210D05A4884420DD05A488C
:1023300084420AD05B48844207D05D48844204D07E
:1023400040F2D1416348FDF7B1FF95B1102D10D097
:10235000202D0ED0302D0CD0402D0AD0502D08D07D
:10236000602D06D0702D04D040F2D2415948FDF7BF
:102370009DFF208920F070002843208170BD70B53A
:1023800004464E480D4684421CD0B4F1804F19D00B
:102390004B48844216D04B48844213D04A4884426A
:1023A00010D03C4884420DD03B4884420AD03D487E
:1023B000844207D03E48844204D040F2F33145487D
:1023C000FDF774FF55B1102D08D0202D06D0302D0B
:1023D00004D04FF47D713F48FDF768FF2946204641
:1023E000FFF790FF208940F00700208170BD2DE9A4
:1023F000F041044631481F4616460D4684421CD023
:10240000B4F1804F19D02E48844216D02D48844212
:1024100013D02D48844210D01E4884420DD01E484F
:1024200084420AD01F48844207D02148844204D005
:1024300040F20F412748FDF739FF502D08D0602D9D
:1024400006D0402D04D04FF482612248FDF72EFFC4
:1024500036B1022E04D040F211411E48FDF726FF8E
:102460000F2F04D940F212411A48FDF71FFF602DCB
:102470003B464FF00102314620462DD0FFF785FA4A
:1024800029462046FFF73EFF208940F007002081C3
:10249000BDE8F08100340140004C01400050014093
:1024A0000054014000180040001C00400020004083
:1024B000004001400044014000480140002C014020
:1024C0000004004000080040000C004000100040E4
:1024D0000014004020130008FFF7D9F9D0E72DE9D8
:1024E000F0410446FF481F4616460D46844213D06D
:1024F000B4F1804F10D0FC4884420DD0FB48844298
:102500000AD0FB48844207D0FA48844204D040F203
:102510008141F948FDF7CAFE6DB1B5F5805F0AD07B
:10252000B5F5005F07D0B5F5405F04D040F28241B9
:10253000F148FDF7BBFEB6F5004F05D026B140F2DD
:102540008341ED48FDF7B2FE0F2F04D940F28441DC
:10255000E948FDF7ABFE20894FF6FF7101EA07213C
:102560003143C0B229430143218191E72DE9F04174
:102570000446DC481F4616460D46844213D0B4F18B
:10258000804F10D0D84884420DD0D84884420AD019
:10259000D748844207D0D748844204D04FF487619B
:1025A000D548FDF783FE6DB1B5F5805F0AD0B5F56E
:1025B000005F07D0B5F5405F04D040F23941CE4806
:1025C000FDF774FEB6F5004F05D026B140F23A4152
:1025D000C948FDF76BFE0F2F04D940F23B41C648B6
:1025E000FDF764FE3B46324629462046FFF777FF5B
:1025F000208940F0770020814AE72DE9F041044628
:10260000B8481F4616460D46844213D0B4F1804F99
:1026100010D0B54884420DD0B44884420AD0B448A2
:10262000844207D0B348844204D040F26141B248AA
:10263000FDF73CFE6DB1B5F5805F0AD0B5F5005FE2
:1026400007D0B5F5405F04D040F26241AA48FDF7DB
:102650002DFEB6F5004F05D026B140F26341A648E5
:10266000FDF724FE0F2F04D940F26441A248FDF784
:102670001DFE3B46324629462046FFF730FF2089A3
:1026800040F48040208103E770B504469548154624
:102690000E46844234D0B4F1804F31D09248844207
:1026A0002ED0924884422BD09148844228D093481F
:1026B000844225D09248844222D08E4884421FD042
:1026C000904884421CD09048844219D08F4884425C
:1026D00016D08F48844213D08E48844210D08E4842
:1026E00084420DD08D4884420AD08D48844207D060
:1026F0008C48844204D040F29B417F48FDF7D6FDD0
:1027000035B1012D04D040F29C417B48FDF7CEFD50
:102710002685A58270BD70B5044672480D46844278
:1027200013D0B4F1804F10D06F4884420DD06F4861
:1027300084420AD06E48844207D06E48844204D056
:1027400040F2B3416C48FDF7B1FD65B1102D0AD0E0
:10275000202D08D0402D06D0602D04D040F2B44189
:102760006548FDF7A3FD208820F0700028432080F5
:1027700070BD2DE9F04104465A481E4617460D46E5
:10278000844216D0B4F1804F13D05748844210D001
:10279000564884420DD0564884420AD05548844257
:1027A00007D05E48844204D04FF49F615248FDF741
:1027B0007DFD012D08D0022D06D0032D04D040F25E
:1027C000F9414D48FDF772FD37B1022F04D040F2B8
:1027D000FA414948FDF76AFD36B1022E04D040F2B5
:1027E000FB414548FDF762FD2289208B218C4FF685
:1027F000FC43184040F20113184321F0220322F059
:1028000007024FF6FF712A4301EA061139431943C3
:102810002281208321843BE670B5044631480D4671
:1028200084422ED0B4F1804F2BD02F48844228D040
:102830002E48844225D02E48844222D02D488442FE
:102840001FD0304884421CD02F48844219D02F48D2
:10285000844216D02E48844213D02E48844210D091
:102860002D4884420DD02D4884420AD02C48844201
:1028700007D02C48844204D040F227511E48FDF76F
:1028800015FD502D06D0402D04D04FF4A5611A48F7
:10289000FDF70CFD208B20F070002843208370BDD5
:1028A00070B504460F480D4684423FD0B4F1804FC6
:1028B0003CD00D48844239D00C48844236D00C4874
:1028C000844233D00B48844230D00E4884422DD00D
:1028D0000F4884422AD01148844227D040F23F5109
:1028E000054821E0002C01400004004000080040A1
:1028F000000C00400034014020130008001000408C
:1029000000140040004C01400050014000540140C0
:1029100000180040001C0040002000400040014022
:102920000044014000480140FDF7C0FC502D06D096
:10293000402D04D04FF4A861FE48FDF7B7FC208B72
:102940004FF6FF7120F4E04001EA052101432183A5
:1029500070BD70B50446F8480D46844213D0B4F1FA
:10296000804F10D0F54884420DD0F54884420AD0FB
:10297000F448844207D0F448844204D040F25751CE
:10298000EC48FDF793FC502D06D0402D04D04FF4B9
:10299000AB61E848FDF78AFCA08B20F0700028436B
:1029A000A08370BD70B50446E3480D46844213D041
:1029B000B4F1804F10D0E14884420DD0E048844209
:1029C0000AD0E048844207D0DF48844204D040F275
:1029D0006F51D848FDF76AFC502D06D0402D04D029
:1029E0004FF4AE61D348FDF761FCA08B4FF6FF7149
:1029F00020F4E04001EA05210143A18370BD70B5D8
:102A00000446CD480D46844234D0B4F1804F31D0D5
:102A1000CA4884422ED0CA4884422BD0C948844236
:102A200028D0CA48844225D0C948844222D0C6480A
:102A300084421FD0C74884421CD0C748844219D062
:102A4000C648844216D0C648844213D0C548844242
:102A500010D0C54884420DD0C44884420AD0C4482E
:102A6000844207D0C348844204D040F28451B14824
:102A7000FDF71CFC55B1012D04D040F28551AD4845
:102A8000FDF714FC208840F0800002E0208820F050
:102A90008000208070BD70B50446A7480D46844272
:102AA00010D0A94884420DD0B04884420AD0B04822
:102AB000844207D0AF48844204D040F29C519D48E4
:102AC000FDF7F4FB55B1012D04D040F29D5199481A
:102AD000FDF7ECFBA08840F0040002E0A08820F0A5
:102AE0000400A08070BD70B5044693480D46844232
:102AF0001CD0B4F1804F19D09048844216D0904831
:102B0000844213D08F48844210D08F4884420DD025
:102B1000964884420AD09648844207D09548844219
:102B200004D040F2B5518348FDF7C0FB55B1012DEB
:102B300004D040F2B6517F48FDF7B8FBA08840F0C2
:102B4000080002E0A08820F00800A08070BD70B5E9
:102B5000044679480D46844216D0B4F1804F13D014
:102B60007648844210D0764884420DD0754884421D
:102B70000AD07548844207D07C48844204D040F291
:102B8000CE516C48FDF792FB55B1012D04D040F2B7
:102B9000CF516848FDF78AFBA08840F0010002E0B1
:102BA000A08820F00100A08070BD70B50446624886
:102BB0000D4684422ED0B4F1804F2BD05F48844222
:102BC00028D05F48844225D05E48844222D05E48A7
:102BD00084421FD05F4884421CD05F48844219D091
:102BE0005E48844216D05E48844213D05D488442D9
:102BF00010D05D4884420DD05C4884420AD05C48C5
:102C0000844207D05B48844204D040F2E9514948ED
:102C1000FDF74CFB082D05D025B140F2EA5145489F
:102C2000FDF744FB208B20F008002843208370BD73
:102C300070B5044640480D4684421CD0B4F1804F24
:102C400019D03E48844216D03D48844213D03D48B6
:102C5000844210D03C4884420DD03E4884420AD081
:102C60003F48844207D04148844204D040F2026188
:102C70003048FDF71BFB082D05D025B140F203615C
:102C80002C48FDF713FB208B4FF6FF7120F40060FA
:102C900001EA05210143218370BD70B50446264831
:102CA0000D46844213D0B4F1804F10D023488442A3
:102CB0000DD0234884420AD02248844207D02248BB
:102CC000844204D040F21A611A48FDF7EFFA082D49
:102CD00005D025B140F21B611648FDF7E7FAA08B3D
:102CE00020F008002843A08370BD70B50446124848
:102CF0000D46844213D0B4F1804F10D00F48844267
:102D00000DD00F4884420AD00E48844207D00E48A6
:102D1000844204D040F232610648FDF7C7FA082D1C
:102D200005D025B140F233610248FDF7BFFAA08B10
:102D300022E0000020130008002C014000040040A5
:102D400000080040000C004000340140001000402A
:102D500000140040004C014000500140005401406C
:102D600000180040001C00400020004000400140CE
:102D700000440140004801404FF6FF7120F400601C
:102D800001EA05210143A18370BD70B50446FF48E7
:102D90000D4684422ED0B4F1804F2BD0FC488442A3
:102DA00028D0FC48844225D0FB48844222D0FB48EE
:102DB00084421FD0FA4884421CD0FA48844219D079
:102DC000F948844216D0F948844213D0F848844226
:102DD00010D0F84884420DD0F74884420AD0F74812
:102DE000844207D0F648844204D040F24A61F54854
:102DF000FDF75CFA042D05D025B140F24B61F14896
:102E0000FDF754FA208B20F004002843208370BD86
:102E100070B50446DD480D4684421CD0B4F1804FA5
:102E200019D0DB48844216D0DA48844213D0DA48FD
:102E3000844210D0D94884420DD0D94884420AD067
:102E4000DA48844207D0DC48844204D040F264610E
:102E5000DC48FDF72BFA042D05D025B140F2656161
:102E6000D848FDF723FA208B4FF6FF7120F48060DD
:102E700001EA05210143218370BD70B50446C348B2
:102E80000D46844213D0B4F1804F10D0C048844224
:102E90000DD0C04884420AD0BF48844207D0BF4802
:102EA000844204D040F27D61C648FDF7FFF9042D4D
:102EB00005D025B140F27E61C248FDF7F7F9A08B3D
:102EC00020F004002843A08370BD70B50446AF48CD
:102ED0000D46844213D0B4F1804F10D0AC488442E8
:102EE0000DD0AC4884420AD0AB48844207D0AB48EE
:102EF000844204D040F29661B248FDF7D7F9042D20
:102F000005D025B140F29761AE48FDF7CFF9A08B0F
:102F10004FF6FF7120F4806001EA05210143A1838F
:102F200070BD70B5044699480D46844213D0B4F183
:102F3000804F10D0964884420DD0964884420AD0E3
:102F40009548844207D09548844204D040F2AF614E
:102F50009C48FDF7ABF9802D05D025B14FF4D66123
:102F60009848FDF7A3F9208B20F0800028432083A8
:102F700070BD70B5044685480D46844213D0B4F147
:102F8000804F10D0824884420DD0824884420AD0BB
:102F90008148844207D08148844204D040F2C9610C
:102FA0008848FDF783F9802D05D025B140F2CA612C
:102FB0008448FDF77BF9208B4FF6FF71C0F30E00BC
:102FC00001EA05210143218370BD70B504466F48B5
:102FD0000D46844213D0B4F1804F10D06C48844227
:102FE0000DD06C4884420AD06B48844207D06B48AD
:102FF000844204D040F2E1617248FDF757F9802D18
:1030000005D025B140F2E2616E48FDF74FF9A08B83
:1030100020F080002843A08370BD70B504465B4853
:103020000D46844213D0B4F1804F10D058488442EA
:103030000DD0584884420AD05748844207D0574898
:10304000844204D040F2F9615E48FDF72FF9802DEB
:1030500005D025B140F2FA615A48FDF727F9A08B57
:103060004FF6FF71C0F30E0001EA05210143A18371
:1030700070BD70B5044645480D4684422ED0B4F16B
:10308000804F2BD04248844228D04248844225D0E9
:103090004148844222D0414884421FD04048844263
:1030A0001CD04048844219D03F48844216D03F4843
:1030B000844213D03E48844210D03E4884420DD012
:1030C0003D4884420AD03D48844207D03C4884426F
:1030D00004D040F211713B48FDF7E8F835B1022DFC
:1030E00004D040F212713748FDF7E0F8208C20F050
:1030F00002002843208470BD70B5044623480D4665
:10310000844210D0254884420DD02B4884420AD0F6
:103110002A48844207D02A48844204D04FF4E5610B
:103120002848FDF7C3F835B1082D04D040F22971C5
:103130002448FDF7BBF8208C20F0080028432084A9
:1031400070BD70B5044611480D4684421CD0B4F1E0
:10315000804F19D00E48844216D00E48844213D0B6
:103160000D48844210D00D4884420DD00C48844252
:103170000AD00E48844207D00F48844204D04FF44E
:10318000E8611048FDF792F82DB31DE0002C0140D6
:103190000004004000080040000C004000340140E2
:1031A000004C014000500140005401400018004014
:1031B000001C00400020004000400140004401404D
:1031C0000048014020130008022D04D040F2417154
:1031D000F848FDF76BF8208C4FF6FF7120F02000C7
:1031E00001EA05110143218470BD70B50446F2481F
:1031F0000D46844207D0F148844204D040F2577112
:10320000EC48FDF753F835B1082D04D04FF4EB61CD
:10321000E848FDF74BF8208C4FF6FF7120F0800056
:1032200001EA05110143218470BD70B50446E248EE
:103230000D46844213D0B4F1804F10D0E048844250
:103240000DD0E04884420AD0DF48844207D0DB48F2
:10325000844204D040F26F71D648FDF727F835B1AB
:10326000022D04D04FF4EE61D248FDF71FF8208CF8
:103270004FF6FF7120F4007001EA0521014321841B
:1032800070BD70B50446CC480D46844207D0CB488B
:10329000844204D040F28771C648FDF707F835B183
:1032A000082D04D04FF4F161C248FCF7FFFF208CD9
:1032B0004FF6FF7120F4006001EA052101432184EB
:1032C00070BD70B50446BC480D46844213D0B4F1BD
:1032D000804F10D0BA4884420DD0BA4884420AD0F8
:1032E000B948844207D0B548844204D040F29F7167
:1032F000B048FCF7DBFF35B1022D04D04FF4F46188
:10330000AC48FCF7D3FF208C4FF6FF7120F400503F
:1033100001EA05310143218470BD70B50446A64819
:1033200016460D4684422ED0B4F1804F2BD0A448CF
:10333000844228D0A348844225D0A348844222D086
:103340009E4884421FD0A14884421CD0A048844299
:1033500019D0A048844216D09F48844213D09F4879
:10336000844210D09E4884420DD09E4884420AD0A8
:103370009D48844207D09D48844204D040F2BB71EE
:103380008C48FCF793FF55B1042D08D0082D06D0CA
:103390000C2D04D040F2BC718648FCF787FF012E4B
:1033A00005D026B140F2BD718248FCF77FFF0120B5
:1033B000218CA84081432184208CAE40304320845E
:1033C00070BD70B504467C4816460D46844210D048
:1033D0007A4884420DD0834884420AD0824884428D
:1033E00007D08248844204D040F2D9717148FCF77A
:1033F0005DFF45B1042D06D0082D04D040F2DA71EE
:103400006C48FCF753FF042E05D026B140F2DB7167
:103410006848FCF74BFF0420218CA840814321849D
:10342000208CAE403043208470BD70B504466248A5
:1034300015460E4684422ED0B4F1804F2BD0604802
:10344000844228D05F48844225D05F48844222D0FD
:103450005A4884421FD05D4884421CD05C48844254
:1034600019D05C48844216D05B48844213D05B4834
:10347000844210D05A4884420DD05A4884420AD01F
:103480005948844207D05948844204D040F6030189
:103490004848FCF70BFF56B1042E08D0082E06D082
:1034A0000C2E04D040F604014248FCF7FFFE95B113
:1034B000102D10D0202D0ED0302D0CD0602D0AD024
:1034C000702D08D0502D06D0402D04D040F60501B7
:1034D0003848FCF7EBFE0121228C04F11800B140C2
:1034E0008A4322848EB1082E0FD0361FC6F34E01B8
:1034F0000844016821F4E041016001684FF6FF7261
:1035000002EA05221143016070BD00EB560001681C
:1035100021F07001016001682943F4E770B50446A9
:1035200025480D46844234D0B4F1804F31D0244830
:1035300084422ED0234884422BD02348844228D072
:103540002B48844225D02B48844222D01B488442F9
:103550001FD01E4884421CD01D48844219D01D48EB
:10356000844216D01C48844213D01C48844210D098
:103570001B4884420DD01B4884420AD01A4884421A
:1035800007D01A48844204D040F62F010948FCF7BE
:103590008DFE55B1012D04D04FF403610548FCF7B1
:1035A00085FE208840F0020002E0208820F0020022
:1035B000208070BD20130008002C01400034014021
:1035C0000004004000080040000C0040004C014096
:1035D000005001400054014000180040001C004011
:1035E00000200040004001400044014000480140EC
:1035F000001000400014004070B50446F9480D4624
:10360000844234D0B4F1804F31D0F74884422ED078
:10361000F64884422BD0F648844228D0F5488442AC
:1036200025D0F548844222D0F44884421FD0F44883
:1036300084421CD0F348844219D0F348844216D007
:10364000F248844213D0F248844210D0F1488442B8
:103650000DD0F14884420AD0F048844207D0F048A7
:10366000844204D040F64B01EE48FCF71FFE55B1F2
:10367000012D04D040F64C01EA48FCF717FE2088E3
:1036800040F0040002E0208820F00400208090E751
:1036900070B50446D3480D4684421CD0B4F1804F27
:1036A00019D0D148844216D0D048844213D0D04893
:1036B000844210D0D14884420DD0D14884420AD0EF
:1036C000D248844207D0D448844204D040F66301F3
:1036D000D448FCF7EBFD55B1012D04D040F6640150
:1036E000D048FCF7E3FDA08840F0800002E0A0880D
:1036F00020F08000A0805CE770B50446B9480D4614
:10370000844234D0B4F1804F31D0B74884422ED0B7
:10371000B64884422BD0B648844228D0B54884426B
:1037200025D0B548844222D0B44884421FD0B44842
:1037300084421CD0B348844219D0B348844216D086
:10374000B248844213D0B248844210D0B148844277
:103750000DD0B14884420AD0B048844207D0B04866
:10376000844204D040F67D01AE48FCF79FFD082D51
:1037700005D025B140F67E01AA48FCF797FD2088C8
:1037800020F00800208020882843208011E770B5B1
:10379000044694480D46844222D0B4F1804F1FD095
:1037A000914884421CD09148844219D09048844268
:1037B00016D09048844213D08F48844210D08F484E
:1037C00084420DD08E4884420AD09048844207D06B
:1037D0009148844204D040F69D019248FCF766FD72
:1037E00095B1102D10D0202D0ED0302D0CD0402DA5
:1037F0000AD0502D08D0602D06D0702D04D040F690
:103800009E018848FCF752FDA08820F07000A0803F
:10381000A0882843A080CCE670B5044671480D46C8
:1038200084421CD0B4F1804F19D06F48844216D026
:103830006E48844213D06E48844210D06F48844250
:103840000DD06F4884420AD07048844207D0724835
:10385000844204D040F6B4017248FCF727FD042DE1
:103860000AD0052D08D0062D06D0072D04D040F62D
:10387000B5016C48FCF71AFD208920F00700208173
:1038800020892843208194E670B5044655480D46AA
:1038900084421CD0B4F1804F19D05348844216D0D2
:1038A0005248844213D05248844210D05348844234
:1038B0000DD0534884420AD05448844207D0564819
:1038C000844204D040F6C9015648FCF7EFFC802D35
:1038D00005D025B140F6CA015248FCF7E7FC208923
:1038E00020F08000208120892843208161E670B586
:1038F00004463C480D46844234D0B4F1804F31D068
:10390000394884422ED0394884422BD038488442EA
:1039100028D03848844225D03748844222D03748BE
:1039200084421FD0364884421CD03648844219D085
:103930003548844216D03548844213D034488442F6
:1039400010D0344884420DD0334884420AD03348E2
:10395000844207D03248844204D040F6DB0131482B
:10396000FCF7A4FCA58424E670B504461D480D466A
:10397000844234D0B4F1804F31D01B4884422ED0E1
:103980001A4884422BD01A48844228D019488442CD
:1039900025D01948844222D0184884421FD01848A4
:1039A00084421CD01748844219D01748844216D04C
:1039B0001648844213D01648844210D015488442D9
:1039C0000DD0154884420AD01448844207D01448C8
:1039D000844204D040F6E9011248FCF767FCA58553
:1039E000E7E50000002C0140000400400008004012
:1039F000000C004000100040001400400034014062
:103A0000004C0140005001400054014000180040AB
:103A1000001C0040002000400040014000440140E4
:103A2000004801402013000870B50446FE480D46CA
:103A300084422ED0B4F1804F2BD0FC48844228D051
:103A4000FB48844225D0FB48844222D0FA48844275
:103A50001FD0FA4884421CD0F948844219D0F94852
:103A6000844216D0F848844213D0F848844210D0DB
:103A7000F74884420DD0F74884420AD0F648844281
:103A800007D0F648844204D040F6F701F448FCF72A
:103A90000DFCA5868DE570B50446E3480D468442CD
:103AA0001CD0B4F1804F19D0E048844216D0E048D1
:103AB000844213D0DF48844210D0DF4884420DD0C6
:103AC000DE4884420AD0E048844207D0E14884427C
:103AD00004D040F60511E248FCF7E8FB258768E5CD
:103AE00070B50446D0480D46844213D0B4F1804FDF
:103AF00010D0CE4884420DD0CD4884420AD0CD4863
:103B0000844207D0CC48844204D040F61311D448F4
:103B1000FCF7CCFBA5874CE570B50446C2480D46C2
:103B2000844213D0B4F1804F10D0C04884420DD0ED
:103B3000BF4884420AD0BF48844207D0BE4884426E
:103B400004D040F62111C648FCF7B0FBA4F8405061
:103B50002FE570B50446B4480D4684422ED0B4F12A
:103B6000804F2BD0B148844228D0B148844225D020
:103B7000B048844222D0B04884421FD0AF4884422B
:103B80001CD0AF48844219D0AE48844216D0AE480B
:103B9000844213D0AD48844210D0AD4884420DD049
:103BA000AC4884420AD0AC48844207D0AB48844237
:103BB00004D040F68C11AA48FCF778FB55B1B5F556
:103BC000807F07D0B5F5007F04D040F68D11A44862
:103BD000FCF76CFB208820F440702080208828436C
:103BE0002080E6E410B504468F4884422ED0B4F11C
:103BF000804F2BD08D48844228D08D48844225D0D8
:103C00008C48844222D08C4884421FD08B48844206
:103C10001CD08B48844219D08A48844216D08A48E6
:103C2000844213D08948844210D0894884420DD000
:103C3000884884420AD08848844207D08748844212
:103C400004D040F69C118648FCF730FBA08E10BDD6
:103C500010B50446744884421CD0B4F1804F19D08A
:103C60007248844216D07248844213D0714884420C
:103C700010D0714884420DD0704884420AD07248F6
:103C8000844207D07348844204D040F6A911744896
:103C9000FCF70CFB208F10BD10B50446624884422F
:103CA00013D0B4F1804F10D0604884420DD06048EA
:103CB00084420AD05F48844207D05F48844204D0DF
:103CC00040F6B6116648FCF7F1FAA08F10BD10B5AA
:103CD00004465548844213D0B4F1804F10D0534865
:103CE00084420DD0524884420AD05248844207D0C0
:103CF0005148844204D040F6C3115948FCF7D6FA23
:103D0000B4F8400010BD10B504464748844234D092
:103D1000B4F1804F31D0454884422ED0444884428B
:103D20002BD04448844228D04E48844225D04E4867
:103D3000844222D0404884421FD0404884421CD054
:103D40003F48844219D03F48844216D03E488442BE
:103D500013D03E48844210D03D4884420DD03D48A7
:103D600084420AD03C48844207D03C48844204D074
:103D70004FF41D613A48FCF799FAA08C10BD10B5BC
:103D800004462948844234D0B4F1804F31D02748CA
:103D900084422ED0264884422BD02648844228D004
:103DA0003048844225D03048844222D02248844280
:103DB0001FD0224884421CD02148844219D0214877
:103DC000844216D02048844213D02048844210D028
:103DD0001F4884420DD01F4884420AD01E488442A6
:103DE00007D01E48844204D040F6DD111C48FCF781
:103DF0005DFA208D10BD70B504460B4800260D46B7
:103E0000844257D0B4F1804F54D00848844251D0F6
:103E1000074884424ED0074884424BD01148844220
:103E200048D01148844221E0002C014000040040A9
:103E300000080040000C004000340140004C0140EC
:103E4000005001400054014000180040001C004098
:103E50000020004000400140004401400048014073
:103E600020130008001000400014004022D09948A0
:103E700084421FD0984884421CD09848844219D06C
:103E80009748844216D09748844213D0964884427B
:103E900010D0964884420DD0954884420AD0954867
:103EA000844207D09448844204D04FF42061934860
:103EB000FCF7FCF9012D1ED0022D1CD0042D1AD0C8
:103EC000082D18D0102D16D0202D14D0402D12D032
:103ED000802D10D0B5F5007F0DD0B5F5806F0AD0DC
:103EE000B5F5006F07D0B5F5805F04D040F601212D
:103EF0008248FCF7DBF9208A284200D001263046B0
:103F000044E470B504467E480D46844234D0B4F192
:103F1000804F31D07B4884422ED07B4884422BD0C6
:103F20007A48844228D07A48844225D0794884420D
:103F300022D0684884421FD0674884421CD067481A
:103F4000844219D06648844216D06648844213D011
:103F50006548844210D0654884420DD0644884424C
:103F60000AD06448844207D06348844204D040F6B3
:103F70002B216248FCF79AF915F4614F00D125B95D
:103F800040F62C215D48FCF791F9E843208242E499
:103F900070B504465A4800260D46844234D0B4F128
:103FA000804F31D0574884422ED0574884422BD07E
:103FB0005648844228D05648844225D055488442E9
:103FC00022D0444884421FD0434884421CD04348F6
:103FD000844219D04248844216D04248844213D0C9
:103FE0004148844210D0414884420DD04048844228
:103FF0000AD04048844207D03F48844204D040F66B
:104000004D213E48FCF752F9012D12D0022D10D05F
:10401000042D0ED0082D0CD0102D0AD0202D08D044
:10402000402D06D0802D04D040F64E213348FCF7B9
:104030003DF9218AA089294200EA050001D000B19A
:10404000012630461FE470B504462D480D468442D3
:1040500034D0B4F1804F31D02A4884422ED02A483F
:1040600084422BD02948844228D02948844225D034
:104070002848844222D0174884421FD016488442E0
:104080001CD01648844219D01548844216D01548D1
:10409000844213D01448844210D0144884420DD076
:1040A000134884420AD01348844207D012488442FD
:1040B00004D040F677211148FCF7F8F8280A00D11F
:1040C00025B940F678210D48FCF7F0F8E843208246
:1040D0000CE4000000340140004C0140005001405D
:1040E0000054014000180040001C00400020004027
:1040F00000400140004401400048014020130008F6
:10410000002C01400004004000080040000C00406A
:1041100000100040001400402DE9F05FFD4DFE4E00
:10412000FE4FDFF8FC83DFF8FC93DFF8FCA3DFF839
:10413000FCB30446A8420FD0B4420DD0BC420BD011
:10414000444509D04C4507D0544505D05C4503D0C3
:104150006F21F7A0FCF7AAF8AC4206D10121042098
:10416000FCF712FE0021042035E0B44206D1012103
:104170000820FCF709FE002108202CE0BC4206D1F3
:1041800001211020FCF700FE0021102023E044450F
:1041900006D101212020FCF7F7FD002120201AE0A4
:1041A0004C4506D101214020FCF7EEFD00214020C6
:1041B00011E0544506D101218020FCF7E5FD0021E6
:1041C000802008E05C450AD101210C022046FCF762
:1041D000DBFD00212046BDE8F05FFCF7D5BDBDE862
:1041E000F09F10B501210846FCF7CEFD0021BDE887
:1041F00010400120FCF7C8BD2DE9F0410446C54838
:1042000000260D46844215D0C348844212D0C348CC
:1042100084420FD0C24884420CD0C248844209D0A4
:10422000C148844206D0C148844203D0B221C0A014
:10423000FCF73CF8E87888B104280FD028280DD086
:1042400048280BD0142809D0102807D01C2805D0E6
:10425000182803D0B321B6A0FCF728F8288818B98D
:10426000B421B3A0FCF722F8E87800F00F07C006ED
:104270000CD5A878012807D0022805D0032803D040
:10428000BB21ABA0FCF712F8A878074328784FF0C1
:104290000F0C4FF0010ED8B121682A880EFA06F0F3
:1042A0000240824210D1B2000CFA02F321EA030369
:1042B00007FA02F1EA781943282A02D0482A02D0E4
:1042C00002E0606100E02061761C082EE5D32160E9
:1042D0002888FF281CD96168002000F108030EFA25
:1042E00003F22B88134093420ED183000CFA03F69D
:1042F000B14307FA03F6EB783143282B00D1626112
:10430000EB78482B00D12261401C0828E5D361607E
:10431000BDE8F0814FF6FF71018002218170042118
:10432000C170704770B505467A4800260C46854234
:1043300016D07948854213D07848854210D0784805
:1043400085420DD0774885420AD07748854207D00C
:104350007648854204D04FF48F7175A0FBF7A6FF15
:10436000012C2AD0022C28D0042C26D0082C24D0B2
:10437000102C22D0202C20D0402C1ED0802C1CD0E1
:10438000B4F5807F19D0B4F5007F16D0B4F5806FF6
:1043900013D0B4F5006F10D0B4F5805F0DD0B4F534
:1043A000005F0AD0B4F5804F07D0B4F5004F04D0B9
:1043B00040F21F115EA0FBF779FFA868204200D0F1
:1043C0000126304670BD10B504465248844216D0CE
:1043D0005148844213D05148844210D050488442FE
:1043E0000DD0504884420AD04F48844207D04F48ED
:1043F000844204D04FF49A714DA0FBF757FFA06898
:1044000080B210BD70B50546424800260C46854274
:1044100016D04148854213D04048854210D04048CC
:1044200085420DD03F4885420AD03F48854207D09B
:104430003E48854204D04FF4A2713DA0FBF736FF01
:10444000012C2AD0022C28D0042C26D0082C24D0D1
:10445000102C22D0202C20D0402C1ED0802C1CD000
:10446000B4F5807F19D0B4F5007F16D0B4F5806F15
:1044700013D0B4F5006F10D0B4F5805F0DD0B4F553
:10448000005F0AD0B4F5804F07D0B4F5004F04D0D8
:1044900040F2451126A0FBF709FFE868204200D052
:1044A0000126304670BD10B504461A48844216D025
:1044B0001948844213D01948844210D018488442C5
:1044C0000DD0184884420AD01748844207D01748B4
:1044D000844204D04FF4AD7115A0FBF7E7FEE0680D
:1044E00080B210BD70B504460A480D46844244D0DF
:1044F0000948844241D0094884423ED00848844259
:104500003BD00848844238D00748844235D0074819
:1045100084422BE000080140000C014000100140E3
:104520000014014000180140001C0140002001401F
:104530004C69627261726965735C53544D333246E3
:104540003130785F5374645065726970685F44728B
:10455000697665725C7372635C73746D3332663155
:1045600030785F6770696F2E6300000005D040F2FD
:104570006911AFF24400FBF799FE2DB94FF4B57104
:10458000AFF25400FBF792FE256170BD70B5044692
:10459000FD480D46844217D0FC48844214D0FC48A4
:1045A000844211D0FB4884420ED0FB4884420BD099
:1045B000FA48844208D0FA48844205D040F2791182
:1045C000AFF29400FBF772FE2DB94FF4BD71AFF25C
:1045D000A000FBF76BFE656170BD70B50546EA484B
:1045E00016460C46854217D0E848854214D0E84864
:1045F000854211D0E74885420ED0E74885420BD06E
:10460000E648854208D0E648854205D040F28D1143
:10461000AFF2E400FBF74AFE012C2BD0022C29D08C
:10462000042C27D0082C25D0102C23D0202C21D0CE
:10463000402C1FD0802C1DD0B4F5807F1AD0B4F54B
:10464000007F17D0B4F5806F14D0B4F5006F11D08F
:10465000B4F5805F0ED0B4F5005F0BD0B4F5804F99
:1046600008D0B4F5004F05D04FF4C771AFF2401039
:10467000FBF71CFE4EB1012E05D040F28F11AFF2B8
:104680005010FBF713FE2C6170BD6C6170BD70B5EE
:104690000446BD480D46844217D0BC48844214D01D
:1046A000BB48844211D0BB4884420ED0BA488442F1
:1046B0000BD0BA48844208D0B948844205D04FF4A0
:1046C000D271AFF29410FBF7F1FDE56070BD70B5EB
:1046D0000446AD480D46844217D0AC48844214D0FD
:1046E000AB48844211D0AB4884420ED0AA488442E1
:1046F0000BD0AA48844208D0A948844205D040F291
:10470000B511AFF2D410FBF7D1FD2DB94FF4DB7129
:10471000AFF2E410FBF7CAFD45F48030A061A5615B
:10472000A061A069A06970BD70B50C4605000DD0F0
:10473000012D0BD0022D09D0032D07D0042D05D05B
:104740004FF4E971AFF21820FBF7B0FD1CB3012C58
:1047500021D0022C1FD0032C1DD0042C1BD0052CE3
:1047600019D0062C17D0072C15D0082C13D0092CE3
:1047700011D00A2C0FD00B2C0DD00C2C0BD00D2CE3
:1047800009D00E2C07D00F2C05D040F2D311AFF278
:104790006020FBF78BFD834908684FF6807210405C
:1047A00040EA05102043086070BD10B5040007D032
:1047B000012C05D04FF4F371AFF28C20FBF776FD9E
:1047C0007948C46110BD2DE9F0410D460446012829
:1047D0007ED0022C7CD0042C7AD0082C78D0A4F582
:1047E000A01010387DD020387BD0A4F5B010403810
:1047F00077D0803875D06D48844272D06C4884423E
:104800006FD06C4884426CD06B48844269D06B484E
:10481000844266D0B4F5805F63D0B4F5EA1F60D0FF
:10482000B4F5EB1F5DD0B4F5004F5AD06448844214
:1048300057D0A4F50010801E53D0801E51D0001F09
:104840004FD008384DD0B4F1201F4AD0303848D06E
:104850005C48844245D05C48844242D05B488442F4
:104860003FD05B4884423CD05A48844239D0B4F5AA
:10487000011F36D05848844233D0401C844230D087
:10488000801C84422DD0001D84422AD052480F3013
:10489000844226D050481F30844222D04E483F30B8
:1048A00084421ED04C487F3084421AD04A48FF30A0
:1048B000844216D04948844213D04948844210D0DB
:1048C000484884420DD0484884420AD0474800E016
:1048D00007E0844205D040F22A21AFF2AC30FBF76A
:1048E000E5FC3DB1012D05D040F22B21AFF2C030E7
:1048F000FBF7DCFC2B49002C01DACA6900E04A68AE
:10490000630D1E01A3B2C4F30157B340C4F30340C7
:10491000032F05D0E6020AD503268640B24307E0FE
:1049200022F070604A6822F070624A6002E09A43A6
:1049300042F0706005B11843002C01DAC861E7E469
:104940004860E5E470B50C46050011D0012D0FD08C
:10495000022D0DD0032D0BD0042D09D0052D07D02D
:10496000062D05D040F26521AFF23C40FBF79EFCDE
:10497000F4B3012C57D0022C55D0032C53D0042C67
:1049800051D0052C4FD034E000080140000C01400C
:10499000001001400014014000180140001C0140BB
:1049A00000200140000001400000204200011800EA
:1049B000000218000003180000081A00000C1A007A
:1049C000010020000001300000023000000430002F
:1049D0000011200000202000010000800002008063
:1049E000000400800008008000100080002000808B
:1049F00019E0062C17D0072C15D0082C13D0092C41
:104A000011D00A2C0FD00B2C0DD00C2C0BD00D2C50
:104A100009D00E2C07D00F2C05D040F26621AFF242
:104A2000F040FBF743FCA007010F0E4824F00303FE
:104A300018440F2283688A409343836082688D40C4
:104A40002A43826070BD10B5040007D0012C05D048
:104A50004FF41E71AFF22850FBF728FC02480460A7
:104A600010BD000000000140DC0020422DE9F047AD
:104A7000FD4DFE4EFE4FDFF8FC83DFF8FC9304464D
:104A8000A8420BD0B44209D0BC4207D0444505D05F
:104A90004C4503D08521F9A0FBF708FCAC420AD1B4
:104AA00001218C032046FCF76FF92046BDE8F04752
:104AB0000021FCF769B9B44202D101214C040DE098
:104AC000BC4202D101218C0408E0444502D10121FD
:104AD000CC0403E04C450AD101210C052046FCF72B
:104AE00071F92046BDE8F0470021FCF76BB9BDE83D
:104AF000F0872DE9F043DC4EDC4FDFF8748385B09E
:104B00000D460446B0420DD0BC420BD0444509D0FE
:104B1000D848844206D0D848844203D0B821D7A0D0
:104B2000FBF7C4FB2868E449401E884203D3B9213F
:104B3000D2A0FBF7BBFBA8884FF4805928B14845A9
:104B400003D0BA21CDA0FBF7B1FBE88858B14845A6
:104B500009D0B0F5005F06D0B0F5405F03D0BB21AF
:104B6000C6A0FBF7A3FB288948B1B0F5806F06D03B
:104B7000B0F5C06F03D0BC21C0A0FBF797FB6889DC
:104B800030F00C0100D118B9BD21BCA0FBF78EFBA1
:104B9000A889C0B1B0F5807F0BD0B0F5007F08D0F8
:104BA000B0F5407F05D0BE21B4A0FBF77FFBA889FC
:104BB00048B1B44207D0BC4205D0444503D0C2211D
:104BC000AEA0FBF773FB208A4CF6FF710840E98822
:104BD00001432182A1894EF6F3100140A8882A8959
:104BE00010436A890A431043A081A08A4FF6FF410F
:104BF0000840A9890143A1826846FCF727F8B4421E
:104C000001D1039800E00298A1890904002900EB72
:104C1000C00101EB0010296802DA4FEA410101E00E
:104C20004FEA8101B0FBF1F06422B0FBF2F14FEAF0
:104C300001114FEA11136FF018056B4300EB83006D
:104C4000A3891D044FF0320306D503EBC000B0FB6F
:104C5000F2F000F0070005E003EB0010B0FBF2F00B
:104C600000F00F000843208105B0BDE8F0834FF449
:104C70001651016000218180C18001810C22428196
:104C80008181704770B5054677480C4685420AD049
:104C90007648854207D07648854204D04FF4997112
:104CA00076A0FBF703FB208838B1B0F5006F04D085
:104CB00040F2331171A0FBF7F9FA608838B1B0F512
:104CC000806F04D04FF49A716CA0FBF7EFFAA088C4
:104CD00038B1B0F5007F04D040F2351167A0FBF782
:104CE000E5FAE08838B1B0F5807F04D04FF49B71CD
:104CF00062A0FBF7DBFA298A4FF2FF00014020880F
:104D00006288E3881043A2881A431043084328822C
:104D100070BD0021018041808180C180704770B5E5
:104D2000044651480D46844210D0504884420DD06C
:104D30004F4884420AD04F48844207D04E488442AC
:104D400004D04FF4B1714DA0FBF7B0FA55B1012D6D
:104D500004D040F2631149A0FBF7A8FAA08940F4FF
:104D6000005002E0A08920F40050A08170BD2DE920
:104D7000F047DFF8F480DFF8F490DFF8F4A016468F
:104D80000C46054640450ED04D450CD055450AD041
:104D90003848854207D03848854204D040F289110E
:104DA00036A0FBF783FA40F66A17282C1CD0A4F52E
:104DB000E060273818D0A4F5C060263814D0A4F5D8
:104DC000A060253810D0A4F5806024380CD0A4F55C
:104DD0000060463808D0BC4206D0602C04D04FF4A6
:104DE000C57126A0FBF762FA36B1012E04D040F25D
:104DF0008B1122A0FBF75AFABC420AD1454508D0D4
:104E00004D4506D0554504D040F28F111BA0FBF74D
:104E10004DFA04F01F020120C4F342119040012911
:104E200006D0022906D0143529682EB1014304E0CA
:104E30000C35F9E71035F7E78143296057E670B57F
:104E40000446094816460D4684423DD00748844230
:104E50003AD00748844237D00648844234D00648C6
:104E6000844231D02AE00000003801400044004074
:104E700000480040004C0040005000404C69627205
:104E800061726965735C53544D3332463130785FDB
:104E90005374645065726970685F447269766572B4
:104EA0005C7372635C73746D3332663130785F7536
:104EB000736172742E63000020AA440040F2C31193
:104EC000AFF24800FBF7F2F935F0C00000D12DB980
:104ED0004FF4E271AFF25C00FBF7E8F956B1012E36
:104EE00005D040F2C511AFF26C00FBF7DFF9A08AE4
:104EF000284301E0A08AA843A08270BD70B5044693
:104F0000FC480D46844211D0FB4884420ED0FB4839
:104F100084420BD0FA48844208D0FA48844205D033
:104F200040F2DF11AFF2AC00FBF7C0F90F2D05D94D
:104F30004FF4F071AFF2BC00FBF7B8F9208A20F013
:104F40000F002082208A2843208270BD70B504465D
:104F5000E8480D46844211D0E74884420ED0E74825
:104F600084420BD0E648844208D0E648844205D00B
:104F70004FF4FB71AFF2FC00FBF798F945B1B5F5C2
:104F8000006F05D040F2F711AFF21010FBF78EF969
:104F9000A08920F40060A081A0892843A08170BD71
:104FA00070B50446D3480D46844211D0D24884429D
:104FB0000ED0D24884420BD0D148844208D0D14888
:104FC000844205D040F20921AFF25010FBF76EF990
:104FD0005DB1012D05D040F20A21AFF26010FBF760
:104FE00065F9A08940F0020002E0A08920F00200EB
:104FF000A08170BD70B50446BE480D46844211D0F4
:10500000BD4884420ED0BD4884420BD0BC48844287
:1050100008D0BC48844205D040F22621AFF2A4104B
:10502000FBF744F93DB1202D05D040F22721AFF226
:10503000B410FBF73BF9208A20F020002082208A60
:105040002843208270BD70B50446AA480D468442AC
:1050500011D0A94884420ED0A84884420BD0A84859
:10506000844208D0A748844205D040F23921AFF2EB
:10507000F410FBF71BF95DB1012D05D040F23A2188
:10508000AFF20820FBF712F9208A40F4804002E0DA
:10509000208A20F48040208270BD70B50446954877
:1050A0000D46844211D0944884420ED093488442E5
:1050B0000BD09348844208D09248844205D040F2F5
:1050C0005321AFF24820FBF7F1F8B5F5007F05D387
:1050D0004FF41571AFF25C20FBF7E8F8C5F3080058
:1050E000A08070BD10B504468248844211D0824829
:1050F00084420ED0814884420BD08148844208D03B
:105100008048844205D04FF41971AFF29020FBF72C
:10511000CDF8A088C0F3080010BD10B5044675484E
:10512000844211D0744884420ED0744884420BD01B
:105130007348844208D07348844205D04FF41D71EF
:10514000AFF2C820FBF7B2F8A08940F00100A081BF
:1051500010BD70B5044667480D4684420BD06648C2
:10516000844208D06548844205D04FF42171AFF2E3
:10517000F420FBF79BF8208BC0B22083208B40EA01
:105180000520208370BD70B504465A480D46844200
:1051900011D0594884420ED0584884420BD0584808
:1051A000844208D05748844205D04FF42671AFF2AC
:1051B0003430FBF77BF8208B00F47F402083208B7A
:1051C0002843208370BD70B504464A480D4684428A
:1051D0000BD04948844208D04848844205D040F268
:1051E000AB21AFF26830FBF761F85DB1012D05D05E
:1051F0004FF42B71AFF27C30FBF758F8A08A40F0E7
:10520000200002E0A08A20F02000A08270BD70B5CE
:10521000044638480D4684420BD03748844208D0B3
:105220003648844205D04FF43171AFF2B030FBF70D
:105230003DF85DB1012D05D040F2C521AFF2C4307B
:10524000FBF734F8A08A40F0100002E0A08A20F0BA
:105250001000A08270BD70B5044626480D468442F9
:1052600011D0254884420ED0244884420BD02448D3
:10527000844208D02348844205D040F2DE21AFF2B8
:105280000440FBF713F85DB1012D05D040F2DF219A
:10529000AFF21840FBF70AF8A08A40F0080002E0DD
:1052A000A08A20F00800A08270BD70B504461148A5
:1052B0000D46844211D0104884420ED00F488442DB
:1052C0000BD00F48844208D00E48844205D040F2EB
:1052D000FD21AFF25840FAF7E9FFADB1012D05D03D
:1052E00040F2FE21AFF26C40FAF7E0FFA08940F4F3
:1052F00000400CE0003801400044004000480040FD
:10530000004C004000500040A089C0F30E00A08176
:1053100070BD70B50446D7480D46844211D0D648BA
:1053200084420ED0D54884420BD0D548844208D060
:10533000D448844205D04FF44671AFF2C040FAF72A
:10534000B5FF5DB1012D05D040F21931AFF2D44067
:10535000FAF7ACFFA08A40F4006002E0A08A20F4D3
:105360000060A08270BD70B50446C2480D468442FC
:1053700011D0C14884420ED0C04884420BD0C048EE
:10538000844208D0BF48844205D040F23531AFF2A4
:105390001450FAF78BFF042D06D02DB140F23631B0
:1053A000AFF22850FAF782FFA08A20F00400A08212
:1053B000A08A2843A08270BD70B50446AD480D4652
:1053C000844211D0AC4884420ED0AC4884420BD009
:1053D000AB48844208D0AB48844205D04FF45271A8
:1053E000AFF26850FAF762FF5DB1012D05D040F2CF
:1053F0004931AFF27850FAF759FFA08A40F0020025
:1054000002E0A08A20F00200A08270BD2DE9F047E2
:10541000984F0026DFF86082DFF860920C46054660
:10542000B8420FD045450DD04D450BD0944885422C
:1054300008D09448854205D040F26E31AFF2C45096
:10544000FAF734FF012C22D0802C20D0402C1ED023
:10545000202C1CD0102C1AD0B4F5807F17D0B4F5B6
:10546000007F08D0082C12D0042C10D0022C0ED0B3
:1054700040F26F3107E0BD4209D0454507D04D45A8
:1054800005D040F27331AFF20C60FAF70FFF2888B5
:10549000204200D001263046D0E42DE9F041754E7F
:1054A000754FDFF8D8810D460446B0420FD0BC429C
:1054B0000DD044450BD07248844208D071488442D4
:1054C00005D040F29E31AFF24C60FAF7EFFE35F4B2
:1054D000587000D12DB940F29F31AFF26060FAF7F9
:1054E000E5FEA8050BD5B44209D0BC4207D044451F
:1054F00005D040F2A331AFF27C60FAF7D7FEE84363
:105500002080BDE8F0812DE9F047DFF868810026B2
:10551000DFF86491DFF864A10C46054640450FD0E2
:105520004D450DD055450BD05548854208D05548BE
:10553000854205D040F2C131AFF2C060FAF7B6FE45
:10554000282C34D0A4F5E06040F66A17273820D024
:10555000A4F5C06026381CD0A4F5A060253818D06A
:10556000A4F58060243814D0A4F50060463810D02B
:10557000BC420ED0B4F5587F19D0B4F5187F16D0C0
:10558000B4F5B07F13D040F2C231AFF21070FAF729
:105590008DFEBC420BD1454509D04D4507D0554540
:1055A00005D040F2C631AFF22C70FAF77FFE04F05E
:1055B0001F020123C4F3421103FA02F001290FD0A4
:1055C00002290FD0A98A4FEA142203FA02F32A888B
:1055D000014202EA030201D002B1012630462DE465
:1055E000A989F0E7298AEEE72DE9F047214EDFF897
:1055F0008880DFF888900D460446B0420FD04445BD
:105600000DD04C450BD01E48844208D01D48844222
:1056100005D040F20A41AFF29C70FAF747FEA5F5BB
:10562000C06040F66A1726380FD0A5F5A06025386F
:105630000BD0A5F50060463807D0BD4205D040F23A
:105640000B41AFF2C870FAF731FEBD420BD1B44244
:1056500009D0444507D04C4505D040F20F41AFF288
:10566000E470FAF723FE290A01208840C043208015
:1056700012E70000003801400044004000480040AC
:10568000004C00400050004070B5FF4D0446A84259
:1056900006D0FE48844203D07D21FDA0FAF706FE25
:1056A000AC424FF0010101D14C0601E04FF08064A3
:1056B0002046FBF787FB2046BDE870400021FBF742
:1056C00081BB70B50446F04800260D46844206D0E2
:1056D000EE48844203D09F21EDA0FAF7E7FDA879B8
:1056E00028B1012803D0A021E9A0FAF7DFFDE8796D
:1056F00028B1012803D0A121E5A0FAF7D7FD287A27
:1057000028B1012803D0A221E1A0FAF7CFFD687AE1
:1057100028B1012803D0A321DDA0FAF7C7FDA87A9C
:1057200028B1012803D0A421D9A0FAF7BFFDE87A57
:1057300028B1012803D0A521D5A0FAF7B7FDA87894
:1057400048B1012807D0022805D0032803D0A6219C
:10575000CFA0FAF7ABFDE87848B1012807D00228BE
:1057600005D0032803D0A721C9A0FAF79FFD287907
:105770000F2803D9A821C6A0FAF798FD6879072851
:1057800003D9A921C2A0FAF791FD2888401EB0F5DF
:10579000806F03D3AA21BEA0FAF788FD206820F00D
:1057A00002002060206840F0010020604FF6FF7189
:1057B00000E0761C6068C00701D18E42F9D16068B4
:1057C000C0075AD0A879012820683AD020F080007C
:1057D0002060E8790128206836D020F04000206061
:1057E000287A0128206832D020F020002060687AD2
:1057F000012820682ED020F010002060A87A01280F
:1058000020682AD020F008002060E87A012820686B
:1058100026D020F004002060A878EA78800740EACB
:1058200002602A7940EA02406A7940EA02502A88F6
:10583000521E1043E061206820F00100206000202B
:1058400012E040F08000C3E740F04000C7E740F0BE
:105850002000CBE740F01000CFE740F00800D3E78E
:1058600040F00400D7E7401C6268D20701D08842AC
:10587000F9D16068C00701D0002070BD012070BD63
:105880002DE9F0410446807A0D2804D94FF4947133
:105890007FA0FAF70BFDE07A30B1012804D040F286
:1058A00029117BA0FAF702FD207B30B1012804D03A
:1058B0004FF4957176A0FAF7F9FC208930B10128F0
:1058C00004D040F22B1172A0FAF7F0FC607B30B1EB
:1058D000012804D04FF496716DA0FAF7E7FCA17A85
:1058E0007A4B01208840196841F001011960774D19
:1058F0001C352968814329607449744E227B0C3120
:105900004036371DA2B90A6882430A606288B4F83B
:1059100006C042EA0C4294F80AC046F83C202288AD
:10592000B4F804C042EA0C4294F80AC047F83C209C
:10593000227B012A0ED10A6802430A602168A27AFA
:105940004FEA314146F832106168A27A4FEA31419C
:1059500047F832105D49E27A091D002A0A6806D02C
:1059600002430A6059492289143112B104E082438A
:10597000F7E70A6882430A602289012A02D10A688D
:1059800002430A60617B012902D129680143296031
:10599000186820F001001860BDE8F08100218171D5
:1059A000C171017241728172C1728170C170032133
:1059B00001710221417101210180704710B5044637
:1059C000401E1A2804D940F2AF1131A0FAF76EFC3C
:1059D0003E49086840F001000860086843F60E720E
:1059E00090430860086840EA04200860086820F0D6
:1059F0000100086010BD70B5044623480D4684427E
:105A000007D02248844204D04FF4E37120A0FAF773
:105A10004DFC55B1012D04D040F2C7111CA0FAF77E
:105A200045FC206840F4803002E0206820F480309B
:105A3000206070BD70B5044613480D46844207D0FF
:105A40001248844204D04FF4F27111A0FAF72EFCF0
:105A5000CDB1012D04D040F2E5110DA0FAF726FCDE
:105A6000206840F080002060D4F8840140F4807009
:105A7000C4F88401D4F8940140F48070C4F894010F
:105A8000D4F8A40124E026E000640040006800404F
:105A90004C69627261726965735C53544D3332466E
:105AA0003130785F5374645065726970685F447216
:105AB000697665725C7372635C73746D33326631E0
:105AC00030785F63616E2E63000000000066004066
:105AD00040F4807013E0206820F080002060D4F84B
